:100000000DC098C097C096C02FC094C093C092C036
:1000100091C090C08FC000400045800011271FBFD5
:10002000CFE5D0E0DEBFCDBFC6E1D0E440E415C0EF
:10003000B991A99139912991099107FD0AC0F991C6
:10004000E991E050F04C51915D93A217B307D9F7B5
:1000500004C01D93A217B307E1F7CB31D40741F7D2
:0800600044D000C0F894FFCF6A
:100068001F930F930FB70F9310E04F935F9342EDD9
:1000780048BD4FEF49BD40A151A14117510729F093
:100088004150510B51A940A918C048EE53E051A95D
:1000980040A942A1442321F0415042A9119801C02E
:1000A800119A43A154A14117510731F04150510B06
:1000B80054A943A9129A01C0129849B3433618F4B7
:1000C80049B3483430F440EB54E054A943A941E023
:1000D80042A9A8955F914F910F910FBF0F911F9162
:0200E800189569
:1000EA0048ED4CBF17BF4CBF56B75C6056BF56E0D1
:1000FA0051B955B755BF5BB35BBBED9A5CB35CBBFB
:10010A00EF9AEE9A5EB55EBD5DB55DBD5DB55160B7
:10011A005DBD5BB551605BBD5BB758605BBF4CBFF3
:0A012A0041B7496241BF7894FFCF4E
:0201340065CF95
:00000001FF
